:1000000010C017C016C015C014C013C012C011C054
:1000100010C00FC00EC00DC00CC00BC00AC009C07C
:1000200008C011241FBECFE5D2E0DEBFCDBF02D095
:100030005AC0E6CF87B38F6087BB8AB38FEF8ABB86
:10004000C19A83E08A95F1F70000DF9A86E28A95EB
:10005000F1F700C0DF9883E08A95F1F70000C198BE
:1000600088E08A95F1F70000D89A87E18A95F1F740
:1000700000C0D89880E18A95F1F7D99A82E18A95F3
:10008000F1F700C0D998C09A8AE08A95F1F700C0CC
:10009000C098C19A83E08A95F1F70000C29A82E283
:1000A0008A95F1F700C0C29883E08A95F1F70000C5
:1000B000C19888E08A95F1F70000DA9A85E18A957F
:1000C000F1F7DA988EE08A95F1F70000DB9A85E186
:1000D0008A95F1F70000DB98C09A8AE08A95F1F7DB
:0A00E00000C0C098ADCFF894FFCF28
:00000001FF
